{
  "contractName": "AccessControl",
  "abi": [
    {
      "inputs": [],
      "name": "ceoAddress",
      "outputs": [
        {
          "internalType": "address",
          "name": "",
          "type": "address"
        }
      ],
      "stateMutability": "view",
      "type": "function"
    },
    {
      "inputs": [],
      "name": "cooAddress",
      "outputs": [
        {
          "internalType": "address",
          "name": "",
          "type": "address"
        }
      ],
      "stateMutability": "view",
      "type": "function"
    },
    {
      "inputs": [],
      "name": "paused",
      "outputs": [
        {
          "internalType": "bool",
          "name": "",
          "type": "bool"
        }
      ],
      "stateMutability": "view",
      "type": "function"
    },
    {
      "inputs": [
        {
          "internalType": "address",
          "name": "newCEO",
          "type": "address"
        }
      ],
      "name": "setCEO",
      "outputs": [],
      "stateMutability": "nonpayable",
      "type": "function"
    },
    {
      "inputs": [
        {
          "internalType": "address",
          "name": "newCOO",
          "type": "address"
        }
      ],
      "name": "setCOO",
      "outputs": [],
      "stateMutability": "nonpayable",
      "type": "function"
    },
    {
      "inputs": [],
      "name": "pause",
      "outputs": [],
      "stateMutability": "nonpayable",
      "type": "function"
    },
    {
      "inputs": [],
      "name": "unpause",
      "outputs": [],
      "stateMutability": "nonpayable",
      "type": "function"
    }
  ],
  "bytecode": "0x60806040526000600160146101000a81548160ff02191690831515021790555034801561002b57600080fd5b506106248061003b6000396000f3fe608060405234801561001057600080fd5b506004361061007d5760003560e01c80633f4ba83a1161005b5780633f4ba83a146100d85780635c975abb146100e25780638456cb5914610100578063b047fb501461010a5761007d565b80630a0f81681461008257806327d7874c146100a05780632ba73c15146100bc575b600080fd5b61008a610128565b604051610097919061055e565b60405180910390f35b6100ba60048036038101906100b59190610513565b61014c565b005b6100d660048036038101906100d19190610513565b610221565b005b6100e06102f9565b005b6100ea6103df565b6040516100f79190610579565b60405180910390f35b6101086103f2565b005b6101126104d8565b60405161011f919061055e565b60405180910390f35b60008054906101000a900473ffffffffffffffffffffffffffffffffffffffff1681565b60008054906101000a900473ffffffffffffffffffffffffffffffffffffffff1673ffffffffffffffffffffffffffffffffffffffff163373ffffffffffffffffffffffffffffffffffffffff16146101a457600080fd5b600073ffffffffffffffffffffffffffffffffffffffff168173ffffffffffffffffffffffffffffffffffffffff1614156101de57600080fd5b806000806101000a81548173ffffffffffffffffffffffffffffffffffffffff021916908373ffffffffffffffffffffffffffffffffffffffff16021790555050565b600160009054906101000a900473ffffffffffffffffffffffffffffffffffffffff1673ffffffffffffffffffffffffffffffffffffffff163373ffffffffffffffffffffffffffffffffffffffff161461027b57600080fd5b600073ffffffffffffffffffffffffffffffffffffffff168173ffffffffffffffffffffffffffffffffffffffff1614156102b557600080fd5b80600160006101000a81548173ffffffffffffffffffffffffffffffffffffffff021916908373ffffffffffffffffffffffffffffffffffffffff16021790555050565b600160149054906101000a900460ff1661031257600080fd5b60008054906101000a900473ffffffffffffffffffffffffffffffffffffffff1673ffffffffffffffffffffffffffffffffffffffff163373ffffffffffffffffffffffffffffffffffffffff1614806103b95750600160009054906101000a900473ffffffffffffffffffffffffffffffffffffffff1673ffffffffffffffffffffffffffffffffffffffff163373ffffffffffffffffffffffffffffffffffffffff16145b6103c257600080fd5b6000600160146101000a81548160ff021916908315150217905550565b600160149054906101000a900460ff1681565b600160149054906101000a900460ff161561040c57600080fd5b60008054906101000a900473ffffffffffffffffffffffffffffffffffffffff1673ffffffffffffffffffffffffffffffffffffffff163373ffffffffffffffffffffffffffffffffffffffff1614806104b35750600160009054906101000a900473ffffffffffffffffffffffffffffffffffffffff1673ffffffffffffffffffffffffffffffffffffffff163373ffffffffffffffffffffffffffffffffffffffff16145b6104bc57600080fd5b60018060146101000a81548160ff021916908315150217905550565b600160009054906101000a900473ffffffffffffffffffffffffffffffffffffffff1681565b60008135905061050d816105d7565b92915050565b600060208284031215610529576105286105d2565b5b6000610537848285016104fe565b91505092915050565b61054981610594565b82525050565b610558816105a6565b82525050565b60006020820190506105736000830184610540565b92915050565b600060208201905061058e600083018461054f565b92915050565b600061059f826105b2565b9050919050565b60008115159050919050565b600073ffffffffffffffffffffffffffffffffffffffff82169050919050565b600080fd5b6105e081610594565b81146105eb57600080fd5b5056fea264697066735822122007e210062a885e0f88b783dd2592898a753e17a38c2144e64af2eb95dc26dad764736f6c63430008070033",
  "immutableReferences": {},
  "source": "// SPDX-License-Identifier: MIT\r\npragma solidity >=0.7.0 <0.9.0;\r\n\r\ncontract AccessControl  {\r\n    address public ceoAddress;\r\n    address public cooAddress;\r\n\r\n    bool public paused = false;\r\n\r\n    modifier onlyCEO() {\r\n        require(msg.sender == ceoAddress);\r\n        _;\r\n    }\r\n\r\n    modifier onlyCOO() {\r\n        require(msg.sender == cooAddress);\r\n        _;\r\n    }\r\n\r\n    modifier onlyCLevel() {\r\n        require(\r\n            msg.sender == ceoAddress ||\r\n            msg.sender == cooAddress\r\n        );\r\n        _;\r\n    }\r\n\r\n    function setCEO(address newCEO) external onlyCEO {\r\n        require(newCEO != address(0));\r\n        ceoAddress = newCEO;\r\n    }\r\n\r\n    function setCOO(address newCOO) external onlyCOO {\r\n        require(newCOO != address(0));\r\n        cooAddress = newCOO;        \r\n    }\r\n\r\n    /// Pausable functionallities\r\n    modifier whenPaused() {\r\n        require(paused);\r\n        _;\r\n    }\r\n\r\n    modifier whenNotPaused() {\r\n        require(!paused);\r\n        _;\r\n    }\r\n\r\n    function pause() external whenNotPaused onlyCLevel {\r\n        paused = true;\r\n    }\r\n\r\n    function unpause() external whenPaused onlyCLevel {\r\n        paused = false;\r\n    }\r\n}",
  "sourcePath": "C:\\Users\\andre\\Documents\\Source\\smart-contract-test\\contracts\\AccessControl.sol",
  "compiler": {
    "name": "solc",
    "version": "0.8.7+commit.e28d00a7.Emscripten.clang"
  },
  "schemaVersion": "3.4.3",
  "updatedAt": "2021-09-27T15:10:20.820Z",
  "devdoc": {
    "kind": "dev",
    "methods": {},
    "version": 1
  },
  "userdoc": {
    "kind": "user",
    "methods": {},
    "version": 1
  }
}