{
  "contractName": "Market",
  "abi": [
    {
      "inputs": [],
      "stateMutability": "nonpayable",
      "type": "constructor"
    },
    {
      "anonymous": false,
      "inputs": [
        {
          "indexed": true,
          "internalType": "address",
          "name": "oldOwner",
          "type": "address"
        },
        {
          "indexed": true,
          "internalType": "address",
          "name": "newOwner",
          "type": "address"
        }
      ],
      "name": "OwnerSet",
      "type": "event"
    },
    {
      "anonymous": false,
      "inputs": [
        {
          "indexed": true,
          "internalType": "address",
          "name": "customer",
          "type": "address"
        },
        {
          "indexed": false,
          "internalType": "uint256",
          "name": "price",
          "type": "uint256"
        }
      ],
      "name": "ProductPurchased",
      "type": "event"
    },
    {
      "inputs": [
        {
          "internalType": "address",
          "name": "",
          "type": "address"
        },
        {
          "internalType": "uint256",
          "name": "",
          "type": "uint256"
        }
      ],
      "name": "customerProducts",
      "outputs": [
        {
          "internalType": "string",
          "name": "name",
          "type": "string"
        },
        {
          "internalType": "uint256",
          "name": "price",
          "type": "uint256"
        }
      ],
      "stateMutability": "view",
      "type": "function",
      "constant": true
    },
    {
      "inputs": [
        {
          "internalType": "address",
          "name": "",
          "type": "address"
        }
      ],
      "name": "customerTotalProducts",
      "outputs": [
        {
          "internalType": "uint256",
          "name": "",
          "type": "uint256"
        }
      ],
      "stateMutability": "view",
      "type": "function",
      "constant": true
    },
    {
      "inputs": [
        {
          "internalType": "address",
          "name": "",
          "type": "address"
        }
      ],
      "name": "customers",
      "outputs": [
        {
          "internalType": "uint256",
          "name": "loyaltyPoint",
          "type": "uint256"
        },
        {
          "internalType": "uint256",
          "name": "totalItems",
          "type": "uint256"
        }
      ],
      "stateMutability": "view",
      "type": "function",
      "constant": true
    },
    {
      "inputs": [],
      "name": "getOwner",
      "outputs": [
        {
          "internalType": "address",
          "name": "",
          "type": "address"
        }
      ],
      "stateMutability": "view",
      "type": "function",
      "constant": true
    },
    {
      "inputs": [
        {
          "internalType": "uint256",
          "name": "",
          "type": "uint256"
        }
      ],
      "name": "products",
      "outputs": [
        {
          "internalType": "string",
          "name": "name",
          "type": "string"
        },
        {
          "internalType": "uint256",
          "name": "price",
          "type": "uint256"
        }
      ],
      "stateMutability": "view",
      "type": "function",
      "constant": true
    },
    {
      "inputs": [
        {
          "internalType": "address",
          "name": "newOwner",
          "type": "address"
        }
      ],
      "name": "transferOwnership",
      "outputs": [],
      "stateMutability": "nonpayable",
      "type": "function"
    },
    {
      "inputs": [
        {
          "internalType": "uint256",
          "name": "newEtherPerPoint",
          "type": "uint256"
        }
      ],
      "name": "setEtherPerPoint",
      "outputs": [],
      "stateMutability": "nonpayable",
      "type": "function"
    },
    {
      "inputs": [
        {
          "internalType": "uint256",
          "name": "productIndex",
          "type": "uint256"
        }
      ],
      "name": "buyProduct",
      "outputs": [],
      "stateMutability": "payable",
      "type": "function",
      "payable": true
    },
    {
      "inputs": [],
      "name": "totalProducts",
      "outputs": [
        {
          "internalType": "uint256",
          "name": "",
          "type": "uint256"
        }
      ],
      "stateMutability": "view",
      "type": "function",
      "constant": true
    },
    {
      "inputs": [],
      "name": "reedemLoyaltyPoint",
      "outputs": [],
      "stateMutability": "nonpayable",
      "type": "function"
    },
    {
      "inputs": [],
      "name": "getMarketBalance",
      "outputs": [
        {
          "internalType": "uint256",
          "name": "",
          "type": "uint256"
        }
      ],
      "stateMutability": "view",
      "type": "function",
      "constant": true
    },
    {
      "inputs": [],
      "name": "getRefundableEther",
      "outputs": [
        {
          "internalType": "uint256",
          "name": "",
          "type": "uint256"
        }
      ],
      "stateMutability": "view",
      "type": "function",
      "constant": true
    }
  ],
  "bytecode": "0x60806040526611c37937e080006001553480156200001c57600080fd5b50336000806101000a81548173ffffffffffffffffffffffffffffffffffffffff021916908373ffffffffffffffffffffffffffffffffffffffff16021790555060008054906101000a900473ffffffffffffffffffffffffffffffffffffffff1673ffffffffffffffffffffffffffffffffffffffff16600073ffffffffffffffffffffffffffffffffffffffff167f342827c97908e5e2f71151c08502a66d44b6f758e3ac2f1de95f02eb95f0a73560405160405180910390a3600260405180604001604052806040518060400160405280600481526020017f54657374000000000000000000000000000000000000000000000000000000008152508152602001674563918244f400008152509080600181540180825580915050600190039060005260206000209060020201600090919091909150600082015181600001908051906020019062000173929190620002d6565b50602082015181600101555050600260405180604001604052806040518060400160405280600681526020017f54657374203200000000000000000000000000000000000000000000000000008152508152602001673782dace9d900000815250908060018154018082558091505060019003906000526020600020906002020160009091909190915060008201518160000190805190602001906200021b929190620002d6565b50602082015181600101555050600260405180604001604052806040518060400160405280600681526020017f54657374203300000000000000000000000000000000000000000000000000008152508152602001673782dace9d90000081525090806001815401808255809150506001900390600052602060002090600202016000909190919091506000820151816000019080519060200190620002c3929190620002d6565b50602082015181600101555050620003eb565b828054620002e49062000386565b90600052602060002090601f01602090048101928262000308576000855562000354565b82601f106200032357805160ff191683800117855562000354565b8280016001018555821562000354579182015b828111156200035357825182559160200191906001019062000336565b5b50905062000363919062000367565b5090565b5b808211156200038257600081600090555060010162000368565b5090565b600060028204905060018216806200039f57607f821691505b60208210811415620003b657620003b5620003bc565b5b50919050565b7f4e487b7100000000000000000000000000000000000000000000000000000000600052602260045260246000fd5b610f0380620003fb6000396000f3fe6080604052600436106100a75760003560e01c80638642269e116100645780638642269e146101f7578063893d20e814610213578063964eec701461023e5780639b9d326d14610269578063c93110f914610294578063f2fde38b146102ab576100a7565b80630ab5c6f3146100ac5780632411ff73146100ea578063336989ae1461011557806341d90775146101535780636ce13878146101905780637acc0b20146101b9575b600080fd5b3480156100b857600080fd5b506100d360048036038101906100ce9190610af3565b6102d4565b6040516100e1929190610bd2565b60405180910390f35b3480156100f657600080fd5b506100ff61039d565b60405161010c9190610c02565b60405180910390f35b34801561012157600080fd5b5061013c60048036038101906101379190610ac6565b6103f4565b60405161014a929190610c1d565b60405180910390f35b34801561015f57600080fd5b5061017a60048036038101906101759190610ac6565b610418565b6040516101879190610c02565b60405180910390f35b34801561019c57600080fd5b506101b760048036038101906101b29190610b33565b610430565b005b3480156101c557600080fd5b506101e060048036038101906101db9190610b33565b610492565b6040516101ee929190610bd2565b60405180910390f35b610211600480360381019061020c9190610b33565b61054e565b005b34801561021f57600080fd5b506102286107e4565b6040516102359190610bb7565b60405180910390f35b34801561024a57600080fd5b5061025361080d565b6040516102609190610c02565b60405180910390f35b34801561027557600080fd5b5061027e61086e565b60405161028b9190610c02565b60405180910390f35b3480156102a057600080fd5b506102a961087b565b005b3480156102b757600080fd5b506102d260048036038101906102cd9190610ac6565b610929565b005b600460205281600052604060002081815481106102f057600080fd5b90600052602060002090600202016000915091505080600001805461031490610d81565b80601f016020809104026020016040519081016040528092919081815260200182805461034090610d81565b801561038d5780601f106103625761010080835404028352916020019161038d565b820191906000526020600020905b81548152906001019060200180831161037057829003601f168201915b5050505050908060010154905082565b6000600360003373ffffffffffffffffffffffffffffffffffffffff1673ffffffffffffffffffffffffffffffffffffffff168152602001908152602001600020600001546001546103ef9190610cb8565b905090565b60036020528060005260406000206000915090508060000154908060010154905082565b60056020528060005260406000206000915090505481565b60008054906101000a900473ffffffffffffffffffffffffffffffffffffffff1673ffffffffffffffffffffffffffffffffffffffff163373ffffffffffffffffffffffffffffffffffffffff161461048857600080fd5b8060018190555050565b600281815481106104a257600080fd5b90600052602060002090600202016000915090508060000180546104c590610d81565b80601f01602080910402602001604051908101604052809291908181526020018280546104f190610d81565b801561053e5780601f106105135761010080835404028352916020019161053e565b820191906000526020600020905b81548152906001019060200180831161052157829003601f168201915b5050505050908060010154905082565b60006002828154811061056457610563610e5a565b5b906000526020600020906002020160405180604001604052908160008201805461058d90610d81565b80601f01602080910402602001604051908101604052809291908181526020018280546105b990610d81565b80156106065780601f106105db57610100808354040283529160200191610606565b820191906000526020600020905b8154815290600101906020018083116105e957829003601f168201915b5050505050815260200160018201548152505090508060200151341461062b57600080fd5b6000600360003373ffffffffffffffffffffffffffffffffffffffff1673ffffffffffffffffffffffffffffffffffffffff168152602001908152602001600020905060018160000160008282546106839190610c62565b92505081905550600181600101600082825461069f9190610c62565b92505081905550600460003373ffffffffffffffffffffffffffffffffffffffff1673ffffffffffffffffffffffffffffffffffffffff168152602001908152602001600020829080600181540180825580915050600190039060005260206000209060020201600090919091909150600082015181600001908051906020019061072b9291906109f9565b50602082015181600101555050600560003373ffffffffffffffffffffffffffffffffffffffff1673ffffffffffffffffffffffffffffffffffffffff168152602001908152602001600020600081548092919061078890610db3565b91905055503373ffffffffffffffffffffffffffffffffffffffff167f621472621639c4a230476ed039dff3e99add1be6bca286f58ed565e08e781a5f83602001516040516107d79190610c02565b60405180910390a2505050565b60008060009054906101000a900473ffffffffffffffffffffffffffffffffffffffff16905090565b60008060009054906101000a900473ffffffffffffffffffffffffffffffffffffffff1673ffffffffffffffffffffffffffffffffffffffff163373ffffffffffffffffffffffffffffffffffffffff161461086857600080fd5b47905090565b6000600280549050905090565b6000600360003373ffffffffffffffffffffffffffffffffffffffff1673ffffffffffffffffffffffffffffffffffffffff1681526020019081526020016000209050600081600001546001546108d29190610cb8565b90503373ffffffffffffffffffffffffffffffffffffffff166108fc829081150290604051600060405180830381858888f1935050505015801561091a573d6000803e3d6000fd5b50600082600001819055505050565b60008054906101000a900473ffffffffffffffffffffffffffffffffffffffff1673ffffffffffffffffffffffffffffffffffffffff163373ffffffffffffffffffffffffffffffffffffffff161461098157600080fd5b600073ffffffffffffffffffffffffffffffffffffffff168173ffffffffffffffffffffffffffffffffffffffff16146109f657806000806101000a81548173ffffffffffffffffffffffffffffffffffffffff021916908373ffffffffffffffffffffffffffffffffffffffff1602179055505b50565b828054610a0590610d81565b90600052602060002090601f016020900481019282610a275760008555610a6e565b82601f10610a4057805160ff1916838001178555610a6e565b82800160010185558215610a6e579182015b82811115610a6d578251825591602001919060010190610a52565b5b509050610a7b9190610a7f565b5090565b5b80821115610a98576000816000905550600101610a80565b5090565b600081359050610aab81610e9f565b92915050565b600081359050610ac081610eb6565b92915050565b600060208284031215610adc57610adb610e89565b5b6000610aea84828501610a9c565b91505092915050565b60008060408385031215610b0a57610b09610e89565b5b6000610b1885828601610a9c565b9250506020610b2985828601610ab1565b9150509250929050565b600060208284031215610b4957610b48610e89565b5b6000610b5784828501610ab1565b91505092915050565b610b6981610d12565b82525050565b6000610b7a82610c46565b610b848185610c51565b9350610b94818560208601610d4e565b610b9d81610e8e565b840191505092915050565b610bb181610d44565b82525050565b6000602082019050610bcc6000830184610b60565b92915050565b60006040820190508181036000830152610bec8185610b6f565b9050610bfb6020830184610ba8565b9392505050565b6000602082019050610c176000830184610ba8565b92915050565b6000604082019050610c326000830185610ba8565b610c3f6020830184610ba8565b9392505050565b600081519050919050565b600082825260208201905092915050565b6000610c6d82610d44565b9150610c7883610d44565b9250827fffffffffffffffffffffffffffffffffffffffffffffffffffffffffffffffff03821115610cad57610cac610dfc565b5b828201905092915050565b6000610cc382610d44565b9150610cce83610d44565b9250817fffffffffffffffffffffffffffffffffffffffffffffffffffffffffffffffff0483118215151615610d0757610d06610dfc565b5b828202905092915050565b6000610d1d82610d24565b9050919050565b600073ffffffffffffffffffffffffffffffffffffffff82169050919050565b6000819050919050565b60005b83811015610d6c578082015181840152602081019050610d51565b83811115610d7b576000848401525b50505050565b60006002820490506001821680610d9957607f821691505b60208210811415610dad57610dac610e2b565b5b50919050565b6000610dbe82610d44565b91507fffffffffffffffffffffffffffffffffffffffffffffffffffffffffffffffff821415610df157610df0610dfc565b5b600182019050919050565b7f4e487b7100000000000000000000000000000000000000000000000000000000600052601160045260246000fd5b7f4e487b7100000000000000000000000000000000000000000000000000000000600052602260045260246000fd5b7f4e487b7100000000000000000000000000000000000000000000000000000000600052603260045260246000fd5b600080fd5b6000601f19601f8301169050919050565b610ea881610d12565b8114610eb357600080fd5b50565b610ebf81610d44565b8114610eca57600080fd5b5056fea2646970667358221220b44fb736ab43ef4a937a47a0b535a9a4957f028f06298bc9eb36d62d74d606bf64736f6c63430008070033",
  "immutableReferences": {},
  "source": "// SPDX-License-Identifier: MIT\r\npragma solidity >=0.7.0 <0.9.0;\r\n\r\nimport \"./AccessControl.sol\";\r\nimport \"./Ownable.sol\";\r\n\r\ncontract Market is Ownable {\r\n\r\n    struct Customer {\r\n        uint loyaltyPoint;\r\n        uint totalItems;\r\n    }\r\n\r\n    struct Product {\r\n        string name;\r\n        uint price;\r\n    }\r\n\r\n    uint etherPerPoint = 0.005 ether;\r\n\r\n    Product[] public products;\r\n    mapping(address => Customer) public customers;\r\n    mapping(address => Product[]) public customerProducts;\r\n    mapping(address => uint) public customerTotalProducts;\r\n\r\n    event ProductPurchased(address indexed customer, uint price);\r\n\r\n    constructor(){\r\n        products.push(Product(\"Test\", 5 ether));\r\n        products.push(Product(\"Test 2\", 4 ether));\r\n        products.push(Product(\"Test 3\", 4 ether));\r\n    }\r\n    \r\n    function setEtherPerPoint(uint newEtherPerPoint) external onlyOwner {\r\n        etherPerPoint = newEtherPerPoint;\r\n    }\r\n\r\n    function buyProduct(uint productIndex) public payable {\r\n        Product memory product = products[productIndex];\r\n        require(msg.value == product.price);\r\n\r\n        Customer storage customer = customers[msg.sender];\r\n        customer.loyaltyPoint += 1;\r\n        customer.totalItems += 1;\r\n        customerProducts[msg.sender].push(product);\r\n        customerTotalProducts[msg.sender]++;\r\n\r\n        emit ProductPurchased(msg.sender, product.price);\r\n    }\r\n\r\n    function totalProducts() view public returns (uint) {\r\n        return products.length;\r\n    }\r\n\r\n    function reedemLoyaltyPoint() public {\r\n        Customer storage customer = customers[msg.sender];\r\n        uint etherToRefound = etherPerPoint * customer.loyaltyPoint;\r\n        payable(msg.sender).transfer(etherToRefound);\r\n        customer.loyaltyPoint = 0;\r\n    }\r\n\r\n    function getMarketBalance() view public onlyOwner returns (uint) {\r\n        return address(this).balance;\r\n    }\r\n\r\n    function getRefundableEther() view public returns (uint) {\r\n        return etherPerPoint * customers[msg.sender].loyaltyPoint;\r\n    }\r\n}",
  "sourcePath": "C:\\Users\\andre\\Documents\\Source\\smart-contract-test\\contracts\\Market.sol",
  "compiler": {
    "name": "solc",
    "version": "0.8.7+commit.e28d00a7.Emscripten.clang"
  },
  "schemaVersion": "3.4.3",
  "updatedAt": "2021-09-27T15:10:23.258Z",
  "networkType": "ethereum",
  "devdoc": {
    "kind": "dev",
    "methods": {},
    "version": 1
  },
  "userdoc": {
    "kind": "user",
    "methods": {},
    "version": 1
  }
}